{
  "contractName": "DataNFTToken",
  "abi": [
    {
      "inputs": [],
      "stateMutability": "nonpayable",
      "type": "constructor"
    },
    {
      "anonymous": false,
      "inputs": [
        {
          "indexed": true,
          "internalType": "address",
          "name": "owner",
          "type": "address"
        },
        {
          "indexed": true,
          "internalType": "address",
          "name": "approved",
          "type": "address"
        },
        {
          "indexed": true,
          "internalType": "uint256",
          "name": "tokenId",
          "type": "uint256"
        }
      ],
      "name": "Approval",
      "type": "event"
    },
    {
      "anonymous": false,
      "inputs": [
        {
          "indexed": true,
          "internalType": "address",
          "name": "owner",
          "type": "address"
        },
        {
          "indexed": true,
          "internalType": "address",
          "name": "operator",
          "type": "address"
        },
        {
          "indexed": false,
          "internalType": "bool",
          "name": "approved",
          "type": "bool"
        }
      ],
      "name": "ApprovalForAll",
      "type": "event"
    },
    {
      "anonymous": false,
      "inputs": [
        {
          "indexed": true,
          "internalType": "address",
          "name": "previousOwner",
          "type": "address"
        },
        {
          "indexed": true,
          "internalType": "address",
          "name": "newOwner",
          "type": "address"
        }
      ],
      "name": "OwnershipTransferred",
      "type": "event"
    },
    {
      "anonymous": false,
      "inputs": [
        {
          "indexed": true,
          "internalType": "address",
          "name": "from",
          "type": "address"
        },
        {
          "indexed": true,
          "internalType": "address",
          "name": "to",
          "type": "address"
        },
        {
          "indexed": true,
          "internalType": "uint256",
          "name": "tokenId",
          "type": "uint256"
        }
      ],
      "name": "Transfer",
      "type": "event"
    },
    {
      "inputs": [
        {
          "internalType": "address",
          "name": "to",
          "type": "address"
        },
        {
          "internalType": "uint256",
          "name": "tokenId",
          "type": "uint256"
        }
      ],
      "name": "approve",
      "outputs": [],
      "stateMutability": "nonpayable",
      "type": "function"
    },
    {
      "inputs": [
        {
          "internalType": "address",
          "name": "owner",
          "type": "address"
        }
      ],
      "name": "balanceOf",
      "outputs": [
        {
          "internalType": "uint256",
          "name": "",
          "type": "uint256"
        }
      ],
      "stateMutability": "view",
      "type": "function",
      "constant": true
    },
    {
      "inputs": [
        {
          "internalType": "uint256",
          "name": "tokenId",
          "type": "uint256"
        }
      ],
      "name": "getApproved",
      "outputs": [
        {
          "internalType": "address",
          "name": "",
          "type": "address"
        }
      ],
      "stateMutability": "view",
      "type": "function",
      "constant": true
    },
    {
      "inputs": [
        {
          "internalType": "address",
          "name": "owner",
          "type": "address"
        },
        {
          "internalType": "address",
          "name": "operator",
          "type": "address"
        }
      ],
      "name": "isApprovedForAll",
      "outputs": [
        {
          "internalType": "bool",
          "name": "",
          "type": "bool"
        }
      ],
      "stateMutability": "view",
      "type": "function",
      "constant": true
    },
    {
      "inputs": [],
      "name": "name",
      "outputs": [
        {
          "internalType": "string",
          "name": "",
          "type": "string"
        }
      ],
      "stateMutability": "view",
      "type": "function",
      "constant": true
    },
    {
      "inputs": [],
      "name": "owner",
      "outputs": [
        {
          "internalType": "address",
          "name": "",
          "type": "address"
        }
      ],
      "stateMutability": "view",
      "type": "function",
      "constant": true
    },
    {
      "inputs": [
        {
          "internalType": "uint256",
          "name": "tokenId",
          "type": "uint256"
        }
      ],
      "name": "ownerOf",
      "outputs": [
        {
          "internalType": "address",
          "name": "",
          "type": "address"
        }
      ],
      "stateMutability": "view",
      "type": "function",
      "constant": true
    },
    {
      "inputs": [],
      "name": "renounceOwnership",
      "outputs": [],
      "stateMutability": "nonpayable",
      "type": "function"
    },
    {
      "inputs": [
        {
          "internalType": "address",
          "name": "from",
          "type": "address"
        },
        {
          "internalType": "address",
          "name": "to",
          "type": "address"
        },
        {
          "internalType": "uint256",
          "name": "tokenId",
          "type": "uint256"
        }
      ],
      "name": "safeTransferFrom",
      "outputs": [],
      "stateMutability": "nonpayable",
      "type": "function"
    },
    {
      "inputs": [
        {
          "internalType": "address",
          "name": "from",
          "type": "address"
        },
        {
          "internalType": "address",
          "name": "to",
          "type": "address"
        },
        {
          "internalType": "uint256",
          "name": "tokenId",
          "type": "uint256"
        },
        {
          "internalType": "bytes",
          "name": "data",
          "type": "bytes"
        }
      ],
      "name": "safeTransferFrom",
      "outputs": [],
      "stateMutability": "nonpayable",
      "type": "function"
    },
    {
      "inputs": [
        {
          "internalType": "address",
          "name": "operator",
          "type": "address"
        },
        {
          "internalType": "bool",
          "name": "approved",
          "type": "bool"
        }
      ],
      "name": "setApprovalForAll",
      "outputs": [],
      "stateMutability": "nonpayable",
      "type": "function"
    },
    {
      "inputs": [
        {
          "internalType": "bytes4",
          "name": "interfaceId",
          "type": "bytes4"
        }
      ],
      "name": "supportsInterface",
      "outputs": [
        {
          "internalType": "bool",
          "name": "",
          "type": "bool"
        }
      ],
      "stateMutability": "view",
      "type": "function",
      "constant": true
    },
    {
      "inputs": [],
      "name": "symbol",
      "outputs": [
        {
          "internalType": "string",
          "name": "",
          "type": "string"
        }
      ],
      "stateMutability": "view",
      "type": "function",
      "constant": true
    },
    {
      "inputs": [
        {
          "internalType": "uint256",
          "name": "index",
          "type": "uint256"
        }
      ],
      "name": "tokenByIndex",
      "outputs": [
        {
          "internalType": "uint256",
          "name": "",
          "type": "uint256"
        }
      ],
      "stateMutability": "view",
      "type": "function",
      "constant": true
    },
    {
      "inputs": [
        {
          "internalType": "address",
          "name": "owner",
          "type": "address"
        },
        {
          "internalType": "uint256",
          "name": "index",
          "type": "uint256"
        }
      ],
      "name": "tokenOfOwnerByIndex",
      "outputs": [
        {
          "internalType": "uint256",
          "name": "",
          "type": "uint256"
        }
      ],
      "stateMutability": "view",
      "type": "function",
      "constant": true
    },
    {
      "inputs": [
        {
          "internalType": "uint256",
          "name": "tokenId",
          "type": "uint256"
        }
      ],
      "name": "tokenURI",
      "outputs": [
        {
          "internalType": "string",
          "name": "",
          "type": "string"
        }
      ],
      "stateMutability": "view",
      "type": "function",
      "constant": true
    },
    {
      "inputs": [],
      "name": "totalSupply",
      "outputs": [
        {
          "internalType": "uint256",
          "name": "",
          "type": "uint256"
        }
      ],
      "stateMutability": "view",
      "type": "function",
      "constant": true
    },
    {
      "inputs": [
        {
          "internalType": "address",
          "name": "from",
          "type": "address"
        },
        {
          "internalType": "address",
          "name": "to",
          "type": "address"
        },
        {
          "internalType": "uint256",
          "name": "tokenId",
          "type": "uint256"
        }
      ],
      "name": "transferFrom",
      "outputs": [],
      "stateMutability": "nonpayable",
      "type": "function"
    },
    {
      "inputs": [
        {
          "internalType": "address",
          "name": "newOwner",
          "type": "address"
        }
      ],
      "name": "transferOwnership",
      "outputs": [],
      "stateMutability": "nonpayable",
      "type": "function"
    },
    {
      "inputs": [
        {
          "internalType": "string",
          "name": "_name",
          "type": "string"
        },
        {
          "internalType": "uint256",
          "name": "_price",
          "type": "uint256"
        },
        {
          "internalType": "uint256",
          "name": "_totalSupply",
          "type": "uint256"
        },
        {
          "internalType": "string",
          "name": "_imageURI",
          "type": "string"
        }
      ],
      "name": "createTicket",
      "outputs": [],
      "stateMutability": "nonpayable",
      "type": "function"
    },
    {
      "inputs": [
        {
          "internalType": "string",
          "name": "_name",
          "type": "string"
        }
      ],
      "name": "purchaseTicket",
      "outputs": [],
      "stateMutability": "payable",
      "type": "function",
      "payable": true
    },
    {
      "inputs": [
        {
          "internalType": "address",
          "name": "user",
          "type": "address"
        }
      ],
      "name": "ticketsOfOwner",
      "outputs": [
        {
          "components": [
            {
              "internalType": "string",
              "name": "name",
              "type": "string"
            },
            {
              "internalType": "uint256",
              "name": "price",
              "type": "uint256"
            },
            {
              "internalType": "uint256",
              "name": "totalSupply",
              "type": "uint256"
            },
            {
              "internalType": "uint256",
              "name": "sold",
              "type": "uint256"
            },
            {
              "internalType": "string",
              "name": "imageURI",
              "type": "string"
            }
          ],
          "internalType": "struct DataNFTToken.Ticket[]",
          "name": "",
          "type": "tuple[]"
        }
      ],
      "stateMutability": "view",
      "type": "function",
      "constant": true
    },
    {
      "inputs": [],
      "name": "withdraw",
      "outputs": [],
      "stateMutability": "nonpayable",
      "type": "function"
    }
  ],
  "bytecode": "0x60806040526000600c553480156200001657600080fd5b50604080518082018252600c81526b2230ba30a7232a2a37b5b2b760a11b60208083019182528351808501909452600384526211139560ea1b9084015281519192916200006691600091620000f5565b5080516200007c906001906020840190620000f5565b50505062000099620000936200009f60201b60201c565b620000a3565b620001d8565b3390565b600a80546001600160a01b038381166001600160a01b0319831681179093556040519116919082907f8be0079c531659141344cd1fd0a4f28419497f9722a3daafe3b4186f6b6457e090600090a35050565b82805462000103906200019b565b90600052602060002090601f01602090048101928262000127576000855562000172565b82601f106200014257805160ff191683800117855562000172565b8280016001018555821562000172579182015b828111156200017257825182559160200191906001019062000155565b506200018092915062000184565b5090565b5b8082111562000180576000815560010162000185565b600181811c90821680620001b057607f821691505b60208210811415620001d257634e487b7160e01b600052602260045260246000fd5b50919050565b61230080620001e86000396000f3fe6080604052600436106101405760003560e01c80636352211e116100b6578063a6b01b451161006f578063a6b01b4514610372578063b88d4fde14610385578063c87b56dd146103a5578063cd4faf83146103c5578063e985e9c5146103f2578063f2fde38b1461043b57600080fd5b80636352211e146102ca57806370a08231146102ea578063715018a61461030a5780638da5cb5b1461031f57806395d89b411461033d578063a22cb4651461035257600080fd5b806323b872dd1161010857806323b872dd14610215578063271ba406146102355780632f745c59146102555780633ccfd60b1461027557806342842e0e1461028a5780634f6ccce7146102aa57600080fd5b806301ffc9a71461014557806306fdde031461017a578063081812fc1461019c578063095ea7b3146101d457806318160ddd146101f6575b600080fd5b34801561015157600080fd5b50610165610160366004611bda565b61045b565b60405190151581526020015b60405180910390f35b34801561018657600080fd5b5061018f610486565b6040516101719190611c4f565b3480156101a857600080fd5b506101bc6101b7366004611c62565b610518565b6040516001600160a01b039091168152602001610171565b3480156101e057600080fd5b506101f46101ef366004611c97565b61053f565b005b34801561020257600080fd5b506008545b604051908152602001610171565b34801561022157600080fd5b506101f4610230366004611cc1565b61065a565b34801561024157600080fd5b506101f4610250366004611da9565b61068b565b34801561026157600080fd5b50610207610270366004611c97565b610748565b34801561028157600080fd5b506101f46107de565b34801561029657600080fd5b506101f46102a5366004611cc1565b610822565b3480156102b657600080fd5b506102076102c5366004611c62565b61083d565b3480156102d657600080fd5b506101bc6102e5366004611c62565b6108d0565b3480156102f657600080fd5b50610207610305366004611e20565b610930565b34801561031657600080fd5b506101f46109b6565b34801561032b57600080fd5b50600a546001600160a01b03166101bc565b34801561034957600080fd5b5061018f6109ca565b34801561035e57600080fd5b506101f461036d366004611e3b565b6109d9565b6101f4610380366004611e77565b6109e8565b34801561039157600080fd5b506101f46103a0366004611eac565b610bd5565b3480156103b157600080fd5b5061018f6103c0366004611c62565b610c0d565b3480156103d157600080fd5b506103e56103e0366004611e20565b610c81565b6040516101719190611f1c565b3480156103fe57600080fd5b5061016561040d366004611fc3565b6001600160a01b03918216600090815260056020908152604080832093909416825291909152205460ff1690565b34801561044757600080fd5b506101f4610456366004611e20565b610ee5565b60006001600160e01b0319821663780e9d6360e01b1480610480575061048082610f5b565b92915050565b60606000805461049590611ff6565b80601f01602080910402602001604051908101604052809291908181526020018280546104c190611ff6565b801561050e5780601f106104e35761010080835404028352916020019161050e565b820191906000526020600020905b8154815290600101906020018083116104f157829003601f168201915b5050505050905090565b600061052382610fab565b506000908152600460205260409020546001600160a01b031690565b600061054a826108d0565b9050806001600160a01b0316836001600160a01b031614156105bd5760405162461bcd60e51b815260206004820152602160248201527f4552433732313a20617070726f76616c20746f2063757272656e74206f776e656044820152603960f91b60648201526084015b60405180910390fd5b336001600160a01b03821614806105d957506105d9813361040d565b61064b5760405162461bcd60e51b815260206004820152603d60248201527f4552433732313a20617070726f76652063616c6c6572206973206e6f7420746f60448201527f6b656e206f776e6572206f7220617070726f76656420666f7220616c6c00000060648201526084016105b4565b610655838361100a565b505050565b6106643382611078565b6106805760405162461bcd60e51b81526004016105b490612031565b6106558383836110f7565b610693611268565b6040805160a081018252858152602080820186905291810184905260006060820181905260808201849052600b80546001810182559152815180519293849360059093027f0175b7a638427703f0dbe7bb9bbf987a2551717b34e79f33b5b1008d1fa01db901926107079284920190611b2b565b50602082810151600183015560408301516002830155606083015160038301556080830151805161073e9260048501920190611b2b565b5050505050505050565b600061075383610930565b82106107b55760405162461bcd60e51b815260206004820152602b60248201527f455243373231456e756d657261626c653a206f776e657220696e646578206f7560448201526a74206f6620626f756e647360a81b60648201526084016105b4565b506001600160a01b03919091166000908152600660209081526040808320938352929052205490565b6107e6611268565b600a546040516001600160a01b03909116904780156108fc02916000818181858888f1935050505015801561081f573d6000803e3d6000fd5b50565b61065583838360405180602001604052806000815250610bd5565b600061084860085490565b82106108ab5760405162461bcd60e51b815260206004820152602c60248201527f455243373231456e756d657261626c653a20676c6f62616c20696e646578206f60448201526b7574206f6620626f756e647360a01b60648201526084016105b4565b600882815481106108be576108be61207e565b90600052602060002001549050919050565b6000818152600260205260408120546001600160a01b0316806104805760405162461bcd60e51b8152602060048201526018602482015277115490cdcc8c4e881a5b9d985b1a59081d1bdad95b88125160421b60448201526064016105b4565b60006001600160a01b03821661099a5760405162461bcd60e51b815260206004820152602960248201527f4552433732313a2061646472657373207a65726f206973206e6f7420612076616044820152683634b21037bbb732b960b91b60648201526084016105b4565b506001600160a01b031660009081526003602052604090205490565b6109be611268565b6109c860006112c2565b565b60606001805461049590611ff6565b6109e4338383611314565b5050565b600b5460005b600b54811015610a895782604051602001610a099190612094565b60405160208183030381529060405280519060200120600b8281548110610a3257610a3261207e565b9060005260206000209060050201600001604051602001610a5391906120b0565b604051602081830303815290604052805190602001201415610a7757809150610a89565b80610a8181612162565b9150506109ee565b50600b548110610acf5760405162461bcd60e51b81526020600482015260116024820152705469636b6574206e6f7420666f756e642160781b60448201526064016105b4565b6000600b8281548110610ae457610ae461207e565b9060005260206000209060050201905080600101543414610b385760405162461bcd60e51b815260206004820152600e60248201526d50617920636f72726563746c792160901b60448201526064016105b4565b806002015481600301541115610b835760405162461bcd60e51b815260206004820152601060248201526f4e6f205469636b657473204c6566742160801b60448201526064016105b4565b600c80546000908152600d6020526040902083905554610ba49033906113e3565b600c8054906000610bb483612162565b9091555050600381018054906000610bcb83612162565b9190505550505050565b610bdf3383611078565b610bfb5760405162461bcd60e51b81526004016105b490612031565b610c07848484846113fd565b50505050565b6060610c1882610fab565b6000610c2f60408051602081019091526000815290565b90506000815111610c4f5760405180602001604052806000815250610c7a565b80610c5984611430565b604051602001610c6a92919061217d565b6040516020818303038152906040525b9392505050565b60606000610c8e83610930565b905060008167ffffffffffffffff811115610cab57610cab611cfd565b604051908082528060200260200182016040528015610d0e57816020015b610cfb6040518060a0016040528060608152602001600081526020016000815260200160008152602001606081525090565b815260200190600190039081610cc95790505b50905060005b82811015610edd576000610d288683610748565b6000818152600d6020526040902054600b8054929350909182908110610d5057610d5061207e565b90600052602060002090600502016040518060a0016040529081600082018054610d7990611ff6565b80601f0160208091040260200160405190810160405280929190818152602001828054610da590611ff6565b8015610df25780601f10610dc757610100808354040283529160200191610df2565b820191906000526020600020905b815481529060010190602001808311610dd557829003601f168201915b50505050508152602001600182015481526020016002820154815260200160038201548152602001600482018054610e2990611ff6565b80601f0160208091040260200160405190810160405280929190818152602001828054610e5590611ff6565b8015610ea25780601f10610e7757610100808354040283529160200191610ea2565b820191906000526020600020905b815481529060010190602001808311610e8557829003601f168201915b505050505081525050848481518110610ebd57610ebd61207e565b602002602001018190525050508080610ed590612162565b915050610d14565b509392505050565b610eed611268565b6001600160a01b038116610f525760405162461bcd60e51b815260206004820152602660248201527f4f776e61626c653a206e6577206f776e657220697320746865207a65726f206160448201526564647265737360d01b60648201526084016105b4565b61081f816112c2565b60006001600160e01b031982166380ac58cd60e01b1480610f8c57506001600160e01b03198216635b5e139f60e01b145b8061048057506301ffc9a760e01b6001600160e01b0319831614610480565b6000818152600260205260409020546001600160a01b031661081f5760405162461bcd60e51b8152602060048201526018602482015277115490cdcc8c4e881a5b9d985b1a59081d1bdad95b88125160421b60448201526064016105b4565b600081815260046020526040902080546001600160a01b0319166001600160a01b038416908117909155819061103f826108d0565b6001600160a01b03167f8c5be1e5ebec7d5bd14f71427d1e84f3dd0314c0f7b2291e5b200ac8c7c3b92560405160405180910390a45050565b600080611084836108d0565b9050806001600160a01b0316846001600160a01b031614806110cb57506001600160a01b0380821660009081526005602090815260408083209388168352929052205460ff165b806110ef5750836001600160a01b03166110e484610518565b6001600160a01b0316145b949350505050565b826001600160a01b031661110a826108d0565b6001600160a01b0316146111305760405162461bcd60e51b81526004016105b4906121ac565b6001600160a01b0382166111925760405162461bcd60e51b8152602060048201526024808201527f4552433732313a207472616e7366657220746f20746865207a65726f206164646044820152637265737360e01b60648201526084016105b4565b61119f83838360016114c5565b826001600160a01b03166111b2826108d0565b6001600160a01b0316146111d85760405162461bcd60e51b81526004016105b4906121ac565b600081815260046020908152604080832080546001600160a01b03199081169091556001600160a01b0387811680865260038552838620805460001901905590871680865283862080546001019055868652600290945282852080549092168417909155905184937fddf252ad1be2c89b69c2b068fc378daa952ba7f163c4a11628f55a4df523b3ef91a4505050565b600a546001600160a01b031633146109c85760405162461bcd60e51b815260206004820181905260248201527f4f776e61626c653a2063616c6c6572206973206e6f7420746865206f776e657260448201526064016105b4565b600a80546001600160a01b038381166001600160a01b0319831681179093556040519116919082907f8be0079c531659141344cd1fd0a4f28419497f9722a3daafe3b4186f6b6457e090600090a35050565b816001600160a01b0316836001600160a01b031614156113765760405162461bcd60e51b815260206004820152601960248201527f4552433732313a20617070726f766520746f2063616c6c65720000000000000060448201526064016105b4565b6001600160a01b03838116600081815260056020908152604080832094871680845294825291829020805460ff191686151590811790915591519182527f17307eab39ab6107e8899845ad3d59bd9653f200f220920489ca2b5937696c31910160405180910390a3505050565b6109e48282604051806020016040528060008152506115f9565b6114088484846110f7565b6114148484848461162c565b610c075760405162461bcd60e51b81526004016105b4906121f1565b6060600061143d8361172a565b600101905060008167ffffffffffffffff81111561145d5761145d611cfd565b6040519080825280601f01601f191660200182016040528015611487576020820181803683370190505b5090508181016020015b600019016f181899199a1a9b1b9c1cb0b131b232b360811b600a86061a8153600a85049450846114c057610edd565b611491565b60018111156115345760405162461bcd60e51b815260206004820152603560248201527f455243373231456e756d657261626c653a20636f6e7365637574697665207472604482015274185b9cd9995c9cc81b9bdd081cdd5c1c1bdc9d1959605a1b60648201526084016105b4565b816001600160a01b0385166115905761158b81600880546000838152600960205260408120829055600182018355919091527ff3f7a9fe364faab93b216da50a3214154f22a0a2b415b23a84c8169e8b636ee30155565b6115b3565b836001600160a01b0316856001600160a01b0316146115b3576115b38582611802565b6001600160a01b0384166115cf576115ca8161189f565b6115f2565b846001600160a01b0316846001600160a01b0316146115f2576115f2848261194e565b5050505050565b6116038383611992565b611610600084848461162c565b6106555760405162461bcd60e51b81526004016105b4906121f1565b60006001600160a01b0384163b1561171f57604051630a85bd0160e11b81526001600160a01b0385169063150b7a0290611670903390899088908890600401612243565b6020604051808303816000875af19250505080156116ab575060408051601f3d908101601f191682019092526116a891810190612280565b60015b611705573d8080156116d9576040519150601f19603f3d011682016040523d82523d6000602084013e6116de565b606091505b5080516116fd5760405162461bcd60e51b81526004016105b4906121f1565b805181602001fd5b6001600160e01b031916630a85bd0160e11b1490506110ef565b506001949350505050565b60008072184f03e93ff9f4daa797ed6e38ed64bf6a1f0160401b83106117695772184f03e93ff9f4daa797ed6e38ed64bf6a1f0160401b830492506040015b6d04ee2d6d415b85acef81000000008310611795576d04ee2d6d415b85acef8100000000830492506020015b662386f26fc1000083106117b357662386f26fc10000830492506010015b6305f5e10083106117cb576305f5e100830492506008015b61271083106117df57612710830492506004015b606483106117f1576064830492506002015b600a83106104805760010192915050565b6000600161180f84610930565b611819919061229d565b60008381526007602052604090205490915080821461186c576001600160a01b03841660009081526006602090815260408083208584528252808320548484528184208190558352600790915290208190555b5060009182526007602090815260408084208490556001600160a01b039094168352600681528383209183525290812055565b6008546000906118b19060019061229d565b600083815260096020526040812054600880549394509092849081106118d9576118d961207e565b9060005260206000200154905080600883815481106118fa576118fa61207e565b6000918252602080832090910192909255828152600990915260408082208490558582528120556008805480611932576119326122b4565b6001900381819060005260206000200160009055905550505050565b600061195983610930565b6001600160a01b039093166000908152600660209081526040808320868452825280832085905593825260079052919091209190915550565b6001600160a01b0382166119e85760405162461bcd60e51b815260206004820181905260248201527f4552433732313a206d696e7420746f20746865207a65726f206164647265737360448201526064016105b4565b6000818152600260205260409020546001600160a01b031615611a4d5760405162461bcd60e51b815260206004820152601c60248201527f4552433732313a20746f6b656e20616c7265616479206d696e7465640000000060448201526064016105b4565b611a5b6000838360016114c5565b6000818152600260205260409020546001600160a01b031615611ac05760405162461bcd60e51b815260206004820152601c60248201527f4552433732313a20746f6b656e20616c7265616479206d696e7465640000000060448201526064016105b4565b6001600160a01b038216600081815260036020908152604080832080546001019055848352600290915280822080546001600160a01b0319168417905551839291907fddf252ad1be2c89b69c2b068fc378daa952ba7f163c4a11628f55a4df523b3ef908290a45050565b828054611b3790611ff6565b90600052602060002090601f016020900481019282611b595760008555611b9f565b82601f10611b7257805160ff1916838001178555611b9f565b82800160010185558215611b9f579182015b82811115611b9f578251825591602001919060010190611b84565b50611bab929150611baf565b5090565b5b80821115611bab5760008155600101611bb0565b6001600160e01b03198116811461081f57600080fd5b600060208284031215611bec57600080fd5b8135610c7a81611bc4565b60005b83811015611c12578181015183820152602001611bfa565b83811115610c075750506000910152565b60008151808452611c3b816020860160208601611bf7565b601f01601f19169290920160200192915050565b602081526000610c7a6020830184611c23565b600060208284031215611c7457600080fd5b5035919050565b80356001600160a01b0381168114611c9257600080fd5b919050565b60008060408385031215611caa57600080fd5b611cb383611c7b565b946020939093013593505050565b600080600060608486031215611cd657600080fd5b611cdf84611c7b565b9250611ced60208501611c7b565b9150604084013590509250925092565b634e487b7160e01b600052604160045260246000fd5b600067ffffffffffffffff80841115611d2e57611d2e611cfd565b604051601f8501601f19908116603f01168101908282118183101715611d5657611d56611cfd565b81604052809350858152868686011115611d6f57600080fd5b858560208301376000602087830101525050509392505050565b600082601f830112611d9a57600080fd5b610c7a83833560208501611d13565b60008060008060808587031215611dbf57600080fd5b843567ffffffffffffffff80821115611dd757600080fd5b611de388838901611d89565b955060208701359450604087013593506060870135915080821115611e0757600080fd5b50611e1487828801611d89565b91505092959194509250565b600060208284031215611e3257600080fd5b610c7a82611c7b565b60008060408385031215611e4e57600080fd5b611e5783611c7b565b915060208301358015158114611e6c57600080fd5b809150509250929050565b600060208284031215611e8957600080fd5b813567ffffffffffffffff811115611ea057600080fd5b6110ef84828501611d89565b60008060008060808587031215611ec257600080fd5b611ecb85611c7b565b9350611ed960208601611c7b565b925060408501359150606085013567ffffffffffffffff811115611efc57600080fd5b8501601f81018713611f0d57600080fd5b611e1487823560208401611d13565b60006020808301818452808551808352604092508286019150828160051b87010184880160005b83811015611fb557603f19898403018552815160a08151818652611f6982870182611c23565b91505088820151898601528782015188860152606080830151818701525060808083015192508582038187015250611fa18183611c23565b968901969450505090860190600101611f43565b509098975050505050505050565b60008060408385031215611fd657600080fd5b611fdf83611c7b565b9150611fed60208401611c7b565b90509250929050565b600181811c9082168061200a57607f821691505b6020821081141561202b57634e487b7160e01b600052602260045260246000fd5b50919050565b6020808252602d908201527f4552433732313a2063616c6c6572206973206e6f7420746f6b656e206f776e6560408201526c1c881bdc88185c1c1c9bdd9959609a1b606082015260800190565b634e487b7160e01b600052603260045260246000fd5b600082516120a6818460208701611bf7565b9190910192915050565b600080835481600182811c9150808316806120cc57607f831692505b60208084108214156120ec57634e487b7160e01b86526022600452602486fd5b81801561210057600181146121115761213e565b60ff1986168952848901965061213e565b60008a81526020902060005b868110156121365781548b82015290850190830161211d565b505084890196505b509498975050505050505050565b634e487b7160e01b600052601160045260246000fd5b60006000198214156121765761217661214c565b5060010190565b6000835161218f818460208801611bf7565b8351908301906121a3818360208801611bf7565b01949350505050565b60208082526025908201527f4552433732313a207472616e736665722066726f6d20696e636f72726563742060408201526437bbb732b960d91b606082015260800190565b60208082526032908201527f4552433732313a207472616e7366657220746f206e6f6e20455243373231526560408201527131b2b4bb32b91034b6b83632b6b2b73a32b960711b606082015260800190565b6001600160a01b038581168252841660208201526040810183905260806060820181905260009061227690830184611c23565b9695505050505050565b60006020828403121561229257600080fd5b8151610c7a81611bc4565b6000828210156122af576122af61214c565b500390565b634e487b7160e01b600052603160045260246000fdfea26469706673582212206f75ecbe86e786a263b75f4ab4af96e33d505b2199c1312b94301813f511c59e64736f6c634300080a0033",
  "immutableReferences": {},
  "source": "//SPDX-License-Identifier: UNLICENSED\r\n\r\npragma solidity ^0.8.10;\r\n\r\nimport \"@openzeppelin/contracts/token/ERC721/extensions/ERC721Enumerable.sol\";\r\nimport \"@openzeppelin/contracts/access/Ownable.sol\";\r\n\r\ncontract DataNFTToken is ERC721Enumerable, Ownable {\r\n\r\n    struct Ticket {\r\n        string name;\r\n        uint256 price;\r\n        uint256 totalSupply;\r\n        uint256 sold;\r\n        string imageURI;\r\n    }\r\n\r\n    Ticket[] private Tickets;\r\n    uint256 tokenId = 0;\r\n\r\n    // this stores which tokenId is linked with which ticket (ticket is found it's array address)\r\n    mapping(uint256 => uint256) private tokenIdToTicketIndex;\r\n\r\n    constructor() ERC721(\"DataNFTToken\", \"DNT\") {}\r\n\r\n    function createTicket(string memory _name, uint256 _price, uint256 _totalSupply, string memory _imageURI) public onlyOwner {\r\n        Ticket memory newTicket = Ticket(_name, _price, _totalSupply, 0, _imageURI);\r\n        Tickets.push(newTicket);\r\n    }\r\n\r\n    function purchaseTicket(string memory _name) public payable {\r\n        // do entry level checks in frontend\r\n        uint256 index = Tickets.length;\r\n\r\n        for(uint i = 0; i < Tickets.length; i++) {\r\n            if(keccak256(abi.encodePacked(Tickets[i].name)) == keccak256(abi.encodePacked(_name))) {\r\n                index = i;\r\n                break;\r\n            }\r\n        }\r\n\r\n        require(index < Tickets.length, \"Ticket not found!\");\r\n\r\n        Ticket storage ticket = Tickets[index];\r\n\r\n        require(msg.value == ticket.price, \"Pay correctly!\");\r\n        require(ticket.sold <= ticket.totalSupply, \"No Tickets Left!\");\r\n\r\n        tokenIdToTicketIndex[tokenId] = index;\r\n        _safeMint(msg.sender, tokenId);\r\n        tokenId++;\r\n\r\n        ticket.sold++;\r\n\r\n    }\r\n\r\n    function ticketsOfOwner(address user) public view returns(Ticket[] memory) {\r\n\r\n        uint256 count = balanceOf(user);\r\n        Ticket[] memory tickets = new Ticket[](count);\r\n\r\n        for(uint i = 0; i < count; i++) {\r\n            uint256 _tokenId = tokenOfOwnerByIndex(user, i);\r\n            uint256 TicketIndex = tokenIdToTicketIndex[_tokenId];\r\n            tickets[i] = Tickets[TicketIndex];\r\n        }\r\n\r\n        return tickets;\r\n\r\n    }\r\n\r\n    function withdraw() public onlyOwner {\r\n        payable(owner()).transfer(address(this).balance);\r\n    }\r\n\r\n}",
  "sourcePath": "D:\\DAPPs\\Adv-NFT-App\\contracts\\DataNFTToken.sol",
  "compiler": {
    "name": "solc",
    "version": "0.8.10+commit.fc410830.Emscripten.clang"
  },
  "schemaVersion": "3.4.16",
  "updatedAt": "2025-04-29T23:24:31.209Z",
  "networkType": "ethereum",
  "devdoc": {
    "kind": "dev",
    "methods": {
      "approve(address,uint256)": {
        "details": "See {IERC721-approve}."
      },
      "balanceOf(address)": {
        "details": "See {IERC721-balanceOf}."
      },
      "getApproved(uint256)": {
        "details": "See {IERC721-getApproved}."
      },
      "isApprovedForAll(address,address)": {
        "details": "See {IERC721-isApprovedForAll}."
      },
      "name()": {
        "details": "See {IERC721Metadata-name}."
      },
      "owner()": {
        "details": "Returns the address of the current owner."
      },
      "ownerOf(uint256)": {
        "details": "See {IERC721-ownerOf}."
      },
      "renounceOwnership()": {
        "details": "Leaves the contract without owner. It will not be possible to call `onlyOwner` functions. Can only be called by the current owner. NOTE: Renouncing ownership will leave the contract without an owner, thereby disabling any functionality that is only available to the owner."
      },
      "safeTransferFrom(address,address,uint256)": {
        "details": "See {IERC721-safeTransferFrom}."
      },
      "safeTransferFrom(address,address,uint256,bytes)": {
        "details": "See {IERC721-safeTransferFrom}."
      },
      "setApprovalForAll(address,bool)": {
        "details": "See {IERC721-setApprovalForAll}."
      },
      "supportsInterface(bytes4)": {
        "details": "See {IERC165-supportsInterface}."
      },
      "symbol()": {
        "details": "See {IERC721Metadata-symbol}."
      },
      "tokenByIndex(uint256)": {
        "details": "See {IERC721Enumerable-tokenByIndex}."
      },
      "tokenOfOwnerByIndex(address,uint256)": {
        "details": "See {IERC721Enumerable-tokenOfOwnerByIndex}."
      },
      "tokenURI(uint256)": {
        "details": "See {IERC721Metadata-tokenURI}."
      },
      "totalSupply()": {
        "details": "See {IERC721Enumerable-totalSupply}."
      },
      "transferFrom(address,address,uint256)": {
        "details": "See {IERC721-transferFrom}."
      },
      "transferOwnership(address)": {
        "details": "Transfers ownership of the contract to a new account (`newOwner`). Can only be called by the current owner."
      }
    },
    "version": 1
  },
  "userdoc": {
    "kind": "user",
    "methods": {},
    "version": 1
  }
}