{
  "contractName": "DataNFTToken",
  "abi": [
    {
      "inputs": [],
      "stateMutability": "nonpayable",
      "type": "constructor"
    },
    {
      "anonymous": false,
      "inputs": [
        {
          "indexed": true,
          "internalType": "address",
          "name": "owner",
          "type": "address"
        },
        {
          "indexed": true,
          "internalType": "address",
          "name": "approved",
          "type": "address"
        },
        {
          "indexed": true,
          "internalType": "uint256",
          "name": "tokenId",
          "type": "uint256"
        }
      ],
      "name": "Approval",
      "type": "event"
    },
    {
      "anonymous": false,
      "inputs": [
        {
          "indexed": true,
          "internalType": "address",
          "name": "owner",
          "type": "address"
        },
        {
          "indexed": true,
          "internalType": "address",
          "name": "operator",
          "type": "address"
        },
        {
          "indexed": false,
          "internalType": "bool",
          "name": "approved",
          "type": "bool"
        }
      ],
      "name": "ApprovalForAll",
      "type": "event"
    },
    {
      "anonymous": false,
      "inputs": [
        {
          "indexed": true,
          "internalType": "address",
          "name": "previousOwner",
          "type": "address"
        },
        {
          "indexed": true,
          "internalType": "address",
          "name": "newOwner",
          "type": "address"
        }
      ],
      "name": "OwnershipTransferred",
      "type": "event"
    },
    {
      "anonymous": false,
      "inputs": [
        {
          "indexed": true,
          "internalType": "address",
          "name": "from",
          "type": "address"
        },
        {
          "indexed": true,
          "internalType": "address",
          "name": "to",
          "type": "address"
        },
        {
          "indexed": true,
          "internalType": "uint256",
          "name": "tokenId",
          "type": "uint256"
        }
      ],
      "name": "Transfer",
      "type": "event"
    },
    {
      "inputs": [
        {
          "internalType": "address",
          "name": "to",
          "type": "address"
        },
        {
          "internalType": "uint256",
          "name": "tokenId",
          "type": "uint256"
        }
      ],
      "name": "approve",
      "outputs": [],
      "stateMutability": "nonpayable",
      "type": "function"
    },
    {
      "inputs": [
        {
          "internalType": "address",
          "name": "owner",
          "type": "address"
        }
      ],
      "name": "balanceOf",
      "outputs": [
        {
          "internalType": "uint256",
          "name": "",
          "type": "uint256"
        }
      ],
      "stateMutability": "view",
      "type": "function",
      "constant": true
    },
    {
      "inputs": [
        {
          "internalType": "uint256",
          "name": "tokenId",
          "type": "uint256"
        }
      ],
      "name": "getApproved",
      "outputs": [
        {
          "internalType": "address",
          "name": "",
          "type": "address"
        }
      ],
      "stateMutability": "view",
      "type": "function",
      "constant": true
    },
    {
      "inputs": [
        {
          "internalType": "address",
          "name": "owner",
          "type": "address"
        },
        {
          "internalType": "address",
          "name": "operator",
          "type": "address"
        }
      ],
      "name": "isApprovedForAll",
      "outputs": [
        {
          "internalType": "bool",
          "name": "",
          "type": "bool"
        }
      ],
      "stateMutability": "view",
      "type": "function",
      "constant": true
    },
    {
      "inputs": [],
      "name": "name",
      "outputs": [
        {
          "internalType": "string",
          "name": "",
          "type": "string"
        }
      ],
      "stateMutability": "view",
      "type": "function",
      "constant": true
    },
    {
      "inputs": [],
      "name": "owner",
      "outputs": [
        {
          "internalType": "address",
          "name": "",
          "type": "address"
        }
      ],
      "stateMutability": "view",
      "type": "function",
      "constant": true
    },
    {
      "inputs": [
        {
          "internalType": "uint256",
          "name": "tokenId",
          "type": "uint256"
        }
      ],
      "name": "ownerOf",
      "outputs": [
        {
          "internalType": "address",
          "name": "",
          "type": "address"
        }
      ],
      "stateMutability": "view",
      "type": "function",
      "constant": true
    },
    {
      "inputs": [],
      "name": "renounceOwnership",
      "outputs": [],
      "stateMutability": "nonpayable",
      "type": "function"
    },
    {
      "inputs": [
        {
          "internalType": "address",
          "name": "from",
          "type": "address"
        },
        {
          "internalType": "address",
          "name": "to",
          "type": "address"
        },
        {
          "internalType": "uint256",
          "name": "tokenId",
          "type": "uint256"
        }
      ],
      "name": "safeTransferFrom",
      "outputs": [],
      "stateMutability": "nonpayable",
      "type": "function"
    },
    {
      "inputs": [
        {
          "internalType": "address",
          "name": "from",
          "type": "address"
        },
        {
          "internalType": "address",
          "name": "to",
          "type": "address"
        },
        {
          "internalType": "uint256",
          "name": "tokenId",
          "type": "uint256"
        },
        {
          "internalType": "bytes",
          "name": "data",
          "type": "bytes"
        }
      ],
      "name": "safeTransferFrom",
      "outputs": [],
      "stateMutability": "nonpayable",
      "type": "function"
    },
    {
      "inputs": [
        {
          "internalType": "address",
          "name": "operator",
          "type": "address"
        },
        {
          "internalType": "bool",
          "name": "approved",
          "type": "bool"
        }
      ],
      "name": "setApprovalForAll",
      "outputs": [],
      "stateMutability": "nonpayable",
      "type": "function"
    },
    {
      "inputs": [
        {
          "internalType": "bytes4",
          "name": "interfaceId",
          "type": "bytes4"
        }
      ],
      "name": "supportsInterface",
      "outputs": [
        {
          "internalType": "bool",
          "name": "",
          "type": "bool"
        }
      ],
      "stateMutability": "view",
      "type": "function",
      "constant": true
    },
    {
      "inputs": [],
      "name": "symbol",
      "outputs": [
        {
          "internalType": "string",
          "name": "",
          "type": "string"
        }
      ],
      "stateMutability": "view",
      "type": "function",
      "constant": true
    },
    {
      "inputs": [
        {
          "internalType": "uint256",
          "name": "index",
          "type": "uint256"
        }
      ],
      "name": "tokenByIndex",
      "outputs": [
        {
          "internalType": "uint256",
          "name": "",
          "type": "uint256"
        }
      ],
      "stateMutability": "view",
      "type": "function",
      "constant": true
    },
    {
      "inputs": [
        {
          "internalType": "address",
          "name": "owner",
          "type": "address"
        },
        {
          "internalType": "uint256",
          "name": "index",
          "type": "uint256"
        }
      ],
      "name": "tokenOfOwnerByIndex",
      "outputs": [
        {
          "internalType": "uint256",
          "name": "",
          "type": "uint256"
        }
      ],
      "stateMutability": "view",
      "type": "function",
      "constant": true
    },
    {
      "inputs": [
        {
          "internalType": "uint256",
          "name": "tokenId",
          "type": "uint256"
        }
      ],
      "name": "tokenURI",
      "outputs": [
        {
          "internalType": "string",
          "name": "",
          "type": "string"
        }
      ],
      "stateMutability": "view",
      "type": "function",
      "constant": true
    },
    {
      "inputs": [],
      "name": "totalSupply",
      "outputs": [
        {
          "internalType": "uint256",
          "name": "",
          "type": "uint256"
        }
      ],
      "stateMutability": "view",
      "type": "function",
      "constant": true
    },
    {
      "inputs": [
        {
          "internalType": "address",
          "name": "from",
          "type": "address"
        },
        {
          "internalType": "address",
          "name": "to",
          "type": "address"
        },
        {
          "internalType": "uint256",
          "name": "tokenId",
          "type": "uint256"
        }
      ],
      "name": "transferFrom",
      "outputs": [],
      "stateMutability": "nonpayable",
      "type": "function"
    },
    {
      "inputs": [
        {
          "internalType": "address",
          "name": "newOwner",
          "type": "address"
        }
      ],
      "name": "transferOwnership",
      "outputs": [],
      "stateMutability": "nonpayable",
      "type": "function"
    },
    {
      "inputs": [
        {
          "internalType": "string",
          "name": "_name",
          "type": "string"
        },
        {
          "internalType": "uint256",
          "name": "_price",
          "type": "uint256"
        },
        {
          "internalType": "uint256",
          "name": "_totalSupply",
          "type": "uint256"
        },
        {
          "internalType": "string",
          "name": "_imageURI",
          "type": "string"
        }
      ],
      "name": "createTicket",
      "outputs": [],
      "stateMutability": "nonpayable",
      "type": "function"
    },
    {
      "inputs": [],
      "name": "getAllTickets",
      "outputs": [
        {
          "components": [
            {
              "internalType": "string",
              "name": "name",
              "type": "string"
            },
            {
              "internalType": "uint256",
              "name": "price",
              "type": "uint256"
            },
            {
              "internalType": "uint256",
              "name": "totalSupply",
              "type": "uint256"
            },
            {
              "internalType": "uint256",
              "name": "sold",
              "type": "uint256"
            },
            {
              "internalType": "string",
              "name": "imageURI",
              "type": "string"
            }
          ],
          "internalType": "struct DataNFTToken.Ticket[]",
          "name": "",
          "type": "tuple[]"
        }
      ],
      "stateMutability": "view",
      "type": "function",
      "constant": true
    },
    {
      "inputs": [
        {
          "internalType": "string",
          "name": "_name",
          "type": "string"
        }
      ],
      "name": "purchaseTicket",
      "outputs": [],
      "stateMutability": "payable",
      "type": "function",
      "payable": true
    },
    {
      "inputs": [
        {
          "internalType": "address",
          "name": "user",
          "type": "address"
        }
      ],
      "name": "ticketsOfOwner",
      "outputs": [
        {
          "components": [
            {
              "internalType": "string",
              "name": "name",
              "type": "string"
            },
            {
              "internalType": "uint256",
              "name": "price",
              "type": "uint256"
            },
            {
              "internalType": "uint256",
              "name": "totalSupply",
              "type": "uint256"
            },
            {
              "internalType": "uint256",
              "name": "sold",
              "type": "uint256"
            },
            {
              "internalType": "string",
              "name": "imageURI",
              "type": "string"
            }
          ],
          "internalType": "struct DataNFTToken.Ticket[]",
          "name": "",
          "type": "tuple[]"
        }
      ],
      "stateMutability": "view",
      "type": "function",
      "constant": true
    },
    {
      "inputs": [],
      "name": "withdraw",
      "outputs": [],
      "stateMutability": "nonpayable",
      "type": "function"
    }
  ],
  "bytecode": "0x60806040526000600c553480156200001657600080fd5b50604080518082018252600c81526b2230ba30a7232a2a37b5b2b760a11b60208083019182528351808501909452600384526211139560ea1b9084015281519192916200006691600091620000f5565b5080516200007c906001906020840190620000f5565b50505062000099620000936200009f60201b60201c565b620000a3565b620001d8565b3390565b600a80546001600160a01b038381166001600160a01b0319831681179093556040519116919082907f8be0079c531659141344cd1fd0a4f28419497f9722a3daafe3b4186f6b6457e090600090a35050565b82805462000103906200019b565b90600052602060002090601f01602090048101928262000127576000855562000172565b82601f106200014257805160ff191683800117855562000172565b8280016001018555821562000172579182015b828111156200017257825182559160200191906001019062000155565b506200018092915062000184565b5090565b5b8082111562000180576000815560010162000185565b600181811c90821680620001b057607f821691505b60208210811415620001d257634e487b7160e01b600052602260045260246000fd5b50919050565b6124c180620001e86000396000f3fe60806040526004361061014b5760003560e01c80636352211e116100b6578063a6b01b451161006f578063a6b01b451461039f578063b88d4fde146103b2578063c87b56dd146103d2578063cd4faf83146103f2578063e985e9c514610412578063f2fde38b1461045b57600080fd5b80636352211e146102f757806370a0823114610317578063715018a6146103375780638da5cb5b1461034c57806395d89b411461036a578063a22cb4651461037f57600080fd5b806323b872dd1161010857806323b872dd14610242578063271ba406146102625780632f745c59146102825780633ccfd60b146102a257806342842e0e146102b75780634f6ccce7146102d757600080fd5b806301ffc9a71461015057806303e96fe31461018557806306fdde03146101a7578063081812fc146101c9578063095ea7b31461020157806318160ddd14610223575b600080fd5b34801561015c57600080fd5b5061017061016b366004611d9b565b61047b565b60405190151581526020015b60405180910390f35b34801561019157600080fd5b5061019a6104a6565b60405161017c9190611e10565b3480156101b357600080fd5b506101bc610647565b60405161017c9190611eb7565b3480156101d557600080fd5b506101e96101e4366004611eca565b6106d9565b6040516001600160a01b03909116815260200161017c565b34801561020d57600080fd5b5061022161021c366004611eff565b610700565b005b34801561022f57600080fd5b506008545b60405190815260200161017c565b34801561024e57600080fd5b5061022161025d366004611f29565b61081b565b34801561026e57600080fd5b5061022161027d366004612011565b61084c565b34801561028e57600080fd5b5061023461029d366004611eff565b610909565b3480156102ae57600080fd5b5061022161099f565b3480156102c357600080fd5b506102216102d2366004611f29565b6109e3565b3480156102e357600080fd5b506102346102f2366004611eca565b6109fe565b34801561030357600080fd5b506101e9610312366004611eca565b610a91565b34801561032357600080fd5b50610234610332366004612088565b610af1565b34801561034357600080fd5b50610221610b77565b34801561035857600080fd5b50600a546001600160a01b03166101e9565b34801561037657600080fd5b506101bc610b8b565b34801561038b57600080fd5b5061022161039a3660046120a3565b610b9a565b6102216103ad3660046120df565b610ba9565b3480156103be57600080fd5b506102216103cd366004612114565b610d96565b3480156103de57600080fd5b506101bc6103ed366004611eca565b610dce565b3480156103fe57600080fd5b5061019a61040d366004612088565b610e42565b34801561041e57600080fd5b5061017061042d366004612184565b6001600160a01b03918216600090815260056020908152604080832093909416825291909152205460ff1690565b34801561046757600080fd5b50610221610476366004612088565b6110a6565b60006001600160e01b0319821663780e9d6360e01b14806104a057506104a08261111c565b92915050565b6060600b805480602002602001604051908101604052809291908181526020016000905b8282101561063e57838290600052602060002090600502016040518060a00160405290816000820180546104fd906121b7565b80601f0160208091040260200160405190810160405280929190818152602001828054610529906121b7565b80156105765780601f1061054b57610100808354040283529160200191610576565b820191906000526020600020905b81548152906001019060200180831161055957829003601f168201915b505050505081526020016001820154815260200160028201548152602001600382015481526020016004820180546105ad906121b7565b80601f01602080910402602001604051908101604052809291908181526020018280546105d9906121b7565b80156106265780601f106105fb57610100808354040283529160200191610626565b820191906000526020600020905b81548152906001019060200180831161060957829003601f168201915b505050505081525050815260200190600101906104ca565b50505050905090565b606060008054610656906121b7565b80601f0160208091040260200160405190810160405280929190818152602001828054610682906121b7565b80156106cf5780601f106106a4576101008083540402835291602001916106cf565b820191906000526020600020905b8154815290600101906020018083116106b257829003601f168201915b5050505050905090565b60006106e48261116c565b506000908152600460205260409020546001600160a01b031690565b600061070b82610a91565b9050806001600160a01b0316836001600160a01b0316141561077e5760405162461bcd60e51b815260206004820152602160248201527f4552433732313a20617070726f76616c20746f2063757272656e74206f776e656044820152603960f91b60648201526084015b60405180910390fd5b336001600160a01b038216148061079a575061079a813361042d565b61080c5760405162461bcd60e51b815260206004820152603d60248201527f4552433732313a20617070726f76652063616c6c6572206973206e6f7420746f60448201527f6b656e206f776e6572206f7220617070726f76656420666f7220616c6c0000006064820152608401610775565b61081683836111cb565b505050565b6108253382611239565b6108415760405162461bcd60e51b8152600401610775906121f2565b6108168383836112b8565b610854611429565b6040805160a081018252858152602080820186905291810184905260006060820181905260808201849052600b80546001810182559152815180519293849360059093027f0175b7a638427703f0dbe7bb9bbf987a2551717b34e79f33b5b1008d1fa01db901926108c89284920190611cec565b5060208281015160018301556040830151600283015560608301516003830155608083015180516108ff9260048501920190611cec565b5050505050505050565b600061091483610af1565b82106109765760405162461bcd60e51b815260206004820152602b60248201527f455243373231456e756d657261626c653a206f776e657220696e646578206f7560448201526a74206f6620626f756e647360a81b6064820152608401610775565b506001600160a01b03919091166000908152600660209081526040808320938352929052205490565b6109a7611429565b600a546040516001600160a01b03909116904780156108fc02916000818181858888f193505050501580156109e0573d6000803e3d6000fd5b50565b61081683838360405180602001604052806000815250610d96565b6000610a0960085490565b8210610a6c5760405162461bcd60e51b815260206004820152602c60248201527f455243373231456e756d657261626c653a20676c6f62616c20696e646578206f60448201526b7574206f6620626f756e647360a01b6064820152608401610775565b60088281548110610a7f57610a7f61223f565b90600052602060002001549050919050565b6000818152600260205260408120546001600160a01b0316806104a05760405162461bcd60e51b8152602060048201526018602482015277115490cdcc8c4e881a5b9d985b1a59081d1bdad95b88125160421b6044820152606401610775565b60006001600160a01b038216610b5b5760405162461bcd60e51b815260206004820152602960248201527f4552433732313a2061646472657373207a65726f206973206e6f7420612076616044820152683634b21037bbb732b960b91b6064820152608401610775565b506001600160a01b031660009081526003602052604090205490565b610b7f611429565b610b896000611483565b565b606060018054610656906121b7565b610ba53383836114d5565b5050565b600b5460005b600b54811015610c4a5782604051602001610bca9190612255565b60405160208183030381529060405280519060200120600b8281548110610bf357610bf361223f565b9060005260206000209060050201600001604051602001610c149190612271565b604051602081830303815290604052805190602001201415610c3857809150610c4a565b80610c4281612323565b915050610baf565b50600b548110610c905760405162461bcd60e51b81526020600482015260116024820152705469636b6574206e6f7420666f756e642160781b6044820152606401610775565b6000600b8281548110610ca557610ca561223f565b9060005260206000209060050201905080600101543414610cf95760405162461bcd60e51b815260206004820152600e60248201526d50617920636f72726563746c792160901b6044820152606401610775565b806002015481600301541115610d445760405162461bcd60e51b815260206004820152601060248201526f4e6f205469636b657473204c6566742160801b6044820152606401610775565b600c80546000908152600d6020526040902083905554610d659033906115a4565b600c8054906000610d7583612323565b9091555050600381018054906000610d8c83612323565b9190505550505050565b610da03383611239565b610dbc5760405162461bcd60e51b8152600401610775906121f2565b610dc8848484846115be565b50505050565b6060610dd98261116c565b6000610df060408051602081019091526000815290565b90506000815111610e105760405180602001604052806000815250610e3b565b80610e1a846115f1565b604051602001610e2b92919061233e565b6040516020818303038152906040525b9392505050565b60606000610e4f83610af1565b905060008167ffffffffffffffff811115610e6c57610e6c611f65565b604051908082528060200260200182016040528015610ecf57816020015b610ebc6040518060a0016040528060608152602001600081526020016000815260200160008152602001606081525090565b815260200190600190039081610e8a5790505b50905060005b8281101561109e576000610ee98683610909565b6000818152600d6020526040902054600b8054929350909182908110610f1157610f1161223f565b90600052602060002090600502016040518060a0016040529081600082018054610f3a906121b7565b80601f0160208091040260200160405190810160405280929190818152602001828054610f66906121b7565b8015610fb35780601f10610f8857610100808354040283529160200191610fb3565b820191906000526020600020905b815481529060010190602001808311610f9657829003601f168201915b50505050508152602001600182015481526020016002820154815260200160038201548152602001600482018054610fea906121b7565b80601f0160208091040260200160405190810160405280929190818152602001828054611016906121b7565b80156110635780601f1061103857610100808354040283529160200191611063565b820191906000526020600020905b81548152906001019060200180831161104657829003601f168201915b50505050508152505084848151811061107e5761107e61223f565b60200260200101819052505050808061109690612323565b915050610ed5565b509392505050565b6110ae611429565b6001600160a01b0381166111135760405162461bcd60e51b815260206004820152602660248201527f4f776e61626c653a206e6577206f776e657220697320746865207a65726f206160448201526564647265737360d01b6064820152608401610775565b6109e081611483565b60006001600160e01b031982166380ac58cd60e01b148061114d57506001600160e01b03198216635b5e139f60e01b145b806104a057506301ffc9a760e01b6001600160e01b03198316146104a0565b6000818152600260205260409020546001600160a01b03166109e05760405162461bcd60e51b8152602060048201526018602482015277115490cdcc8c4e881a5b9d985b1a59081d1bdad95b88125160421b6044820152606401610775565b600081815260046020526040902080546001600160a01b0319166001600160a01b038416908117909155819061120082610a91565b6001600160a01b03167f8c5be1e5ebec7d5bd14f71427d1e84f3dd0314c0f7b2291e5b200ac8c7c3b92560405160405180910390a45050565b60008061124583610a91565b9050806001600160a01b0316846001600160a01b0316148061128c57506001600160a01b0380821660009081526005602090815260408083209388168352929052205460ff165b806112b05750836001600160a01b03166112a5846106d9565b6001600160a01b0316145b949350505050565b826001600160a01b03166112cb82610a91565b6001600160a01b0316146112f15760405162461bcd60e51b81526004016107759061236d565b6001600160a01b0382166113535760405162461bcd60e51b8152602060048201526024808201527f4552433732313a207472616e7366657220746f20746865207a65726f206164646044820152637265737360e01b6064820152608401610775565b6113608383836001611686565b826001600160a01b031661137382610a91565b6001600160a01b0316146113995760405162461bcd60e51b81526004016107759061236d565b600081815260046020908152604080832080546001600160a01b03199081169091556001600160a01b0387811680865260038552838620805460001901905590871680865283862080546001019055868652600290945282852080549092168417909155905184937fddf252ad1be2c89b69c2b068fc378daa952ba7f163c4a11628f55a4df523b3ef91a4505050565b600a546001600160a01b03163314610b895760405162461bcd60e51b815260206004820181905260248201527f4f776e61626c653a2063616c6c6572206973206e6f7420746865206f776e65726044820152606401610775565b600a80546001600160a01b038381166001600160a01b0319831681179093556040519116919082907f8be0079c531659141344cd1fd0a4f28419497f9722a3daafe3b4186f6b6457e090600090a35050565b816001600160a01b0316836001600160a01b031614156115375760405162461bcd60e51b815260206004820152601960248201527f4552433732313a20617070726f766520746f2063616c6c6572000000000000006044820152606401610775565b6001600160a01b03838116600081815260056020908152604080832094871680845294825291829020805460ff191686151590811790915591519182527f17307eab39ab6107e8899845ad3d59bd9653f200f220920489ca2b5937696c31910160405180910390a3505050565b610ba58282604051806020016040528060008152506117ba565b6115c98484846112b8565b6115d5848484846117ed565b610dc85760405162461bcd60e51b8152600401610775906123b2565b606060006115fe836118eb565b600101905060008167ffffffffffffffff81111561161e5761161e611f65565b6040519080825280601f01601f191660200182016040528015611648576020820181803683370190505b5090508181016020015b600019016f181899199a1a9b1b9c1cb0b131b232b360811b600a86061a8153600a85049450846116815761109e565b611652565b60018111156116f55760405162461bcd60e51b815260206004820152603560248201527f455243373231456e756d657261626c653a20636f6e7365637574697665207472604482015274185b9cd9995c9cc81b9bdd081cdd5c1c1bdc9d1959605a1b6064820152608401610775565b816001600160a01b0385166117515761174c81600880546000838152600960205260408120829055600182018355919091527ff3f7a9fe364faab93b216da50a3214154f22a0a2b415b23a84c8169e8b636ee30155565b611774565b836001600160a01b0316856001600160a01b0316146117745761177485826119c3565b6001600160a01b0384166117905761178b81611a60565b6117b3565b846001600160a01b0316846001600160a01b0316146117b3576117b38482611b0f565b5050505050565b6117c48383611b53565b6117d160008484846117ed565b6108165760405162461bcd60e51b8152600401610775906123b2565b60006001600160a01b0384163b156118e057604051630a85bd0160e11b81526001600160a01b0385169063150b7a0290611831903390899088908890600401612404565b6020604051808303816000875af192505050801561186c575060408051601f3d908101601f1916820190925261186991810190612441565b60015b6118c6573d80801561189a576040519150601f19603f3d011682016040523d82523d6000602084013e61189f565b606091505b5080516118be5760405162461bcd60e51b8152600401610775906123b2565b805181602001fd5b6001600160e01b031916630a85bd0160e11b1490506112b0565b506001949350505050565b60008072184f03e93ff9f4daa797ed6e38ed64bf6a1f0160401b831061192a5772184f03e93ff9f4daa797ed6e38ed64bf6a1f0160401b830492506040015b6d04ee2d6d415b85acef81000000008310611956576d04ee2d6d415b85acef8100000000830492506020015b662386f26fc10000831061197457662386f26fc10000830492506010015b6305f5e100831061198c576305f5e100830492506008015b61271083106119a057612710830492506004015b606483106119b2576064830492506002015b600a83106104a05760010192915050565b600060016119d084610af1565b6119da919061245e565b600083815260076020526040902054909150808214611a2d576001600160a01b03841660009081526006602090815260408083208584528252808320548484528184208190558352600790915290208190555b5060009182526007602090815260408084208490556001600160a01b039094168352600681528383209183525290812055565b600854600090611a729060019061245e565b60008381526009602052604081205460088054939450909284908110611a9a57611a9a61223f565b906000526020600020015490508060088381548110611abb57611abb61223f565b6000918252602080832090910192909255828152600990915260408082208490558582528120556008805480611af357611af3612475565b6001900381819060005260206000200160009055905550505050565b6000611b1a83610af1565b6001600160a01b039093166000908152600660209081526040808320868452825280832085905593825260079052919091209190915550565b6001600160a01b038216611ba95760405162461bcd60e51b815260206004820181905260248201527f4552433732313a206d696e7420746f20746865207a65726f20616464726573736044820152606401610775565b6000818152600260205260409020546001600160a01b031615611c0e5760405162461bcd60e51b815260206004820152601c60248201527f4552433732313a20746f6b656e20616c7265616479206d696e746564000000006044820152606401610775565b611c1c600083836001611686565b6000818152600260205260409020546001600160a01b031615611c815760405162461bcd60e51b815260206004820152601c60248201527f4552433732313a20746f6b656e20616c7265616479206d696e746564000000006044820152606401610775565b6001600160a01b038216600081815260036020908152604080832080546001019055848352600290915280822080546001600160a01b0319168417905551839291907fddf252ad1be2c89b69c2b068fc378daa952ba7f163c4a11628f55a4df523b3ef908290a45050565b828054611cf8906121b7565b90600052602060002090601f016020900481019282611d1a5760008555611d60565b82601f10611d3357805160ff1916838001178555611d60565b82800160010185558215611d60579182015b82811115611d60578251825591602001919060010190611d45565b50611d6c929150611d70565b5090565b5b80821115611d6c5760008155600101611d71565b6001600160e01b0319811681146109e057600080fd5b600060208284031215611dad57600080fd5b8135610e3b81611d85565b60005b83811015611dd3578181015183820152602001611dbb565b83811115610dc85750506000910152565b60008151808452611dfc816020860160208601611db8565b601f01601f19169290920160200192915050565b60006020808301818452808551808352604092508286019150828160051b87010184880160005b83811015611ea957603f19898403018552815160a08151818652611e5d82870182611de4565b91505088820151898601528782015188860152606080830151818701525060808083015192508582038187015250611e958183611de4565b968901969450505090860190600101611e37565b509098975050505050505050565b602081526000610e3b6020830184611de4565b600060208284031215611edc57600080fd5b5035919050565b80356001600160a01b0381168114611efa57600080fd5b919050565b60008060408385031215611f1257600080fd5b611f1b83611ee3565b946020939093013593505050565b600080600060608486031215611f3e57600080fd5b611f4784611ee3565b9250611f5560208501611ee3565b9150604084013590509250925092565b634e487b7160e01b600052604160045260246000fd5b600067ffffffffffffffff80841115611f9657611f96611f65565b604051601f8501601f19908116603f01168101908282118183101715611fbe57611fbe611f65565b81604052809350858152868686011115611fd757600080fd5b858560208301376000602087830101525050509392505050565b600082601f83011261200257600080fd5b610e3b83833560208501611f7b565b6000806000806080858703121561202757600080fd5b843567ffffffffffffffff8082111561203f57600080fd5b61204b88838901611ff1565b95506020870135945060408701359350606087013591508082111561206f57600080fd5b5061207c87828801611ff1565b91505092959194509250565b60006020828403121561209a57600080fd5b610e3b82611ee3565b600080604083850312156120b657600080fd5b6120bf83611ee3565b9150602083013580151581146120d457600080fd5b809150509250929050565b6000602082840312156120f157600080fd5b813567ffffffffffffffff81111561210857600080fd5b6112b084828501611ff1565b6000806000806080858703121561212a57600080fd5b61213385611ee3565b935061214160208601611ee3565b925060408501359150606085013567ffffffffffffffff81111561216457600080fd5b8501601f8101871361217557600080fd5b61207c87823560208401611f7b565b6000806040838503121561219757600080fd5b6121a083611ee3565b91506121ae60208401611ee3565b90509250929050565b600181811c908216806121cb57607f821691505b602082108114156121ec57634e487b7160e01b600052602260045260246000fd5b50919050565b6020808252602d908201527f4552433732313a2063616c6c6572206973206e6f7420746f6b656e206f776e6560408201526c1c881bdc88185c1c1c9bdd9959609a1b606082015260800190565b634e487b7160e01b600052603260045260246000fd5b60008251612267818460208701611db8565b9190910192915050565b600080835481600182811c91508083168061228d57607f831692505b60208084108214156122ad57634e487b7160e01b86526022600452602486fd5b8180156122c157600181146122d2576122ff565b60ff198616895284890196506122ff565b60008a81526020902060005b868110156122f75781548b8201529085019083016122de565b505084890196505b509498975050505050505050565b634e487b7160e01b600052601160045260246000fd5b60006000198214156123375761233761230d565b5060010190565b60008351612350818460208801611db8565b835190830190612364818360208801611db8565b01949350505050565b60208082526025908201527f4552433732313a207472616e736665722066726f6d20696e636f72726563742060408201526437bbb732b960d91b606082015260800190565b60208082526032908201527f4552433732313a207472616e7366657220746f206e6f6e20455243373231526560408201527131b2b4bb32b91034b6b83632b6b2b73a32b960711b606082015260800190565b6001600160a01b038581168252841660208201526040810183905260806060820181905260009061243790830184611de4565b9695505050505050565b60006020828403121561245357600080fd5b8151610e3b81611d85565b6000828210156124705761247061230d565b500390565b634e487b7160e01b600052603160045260246000fdfea26469706673582212208abfc873def0bee4bed4345ed8a2de67cf1c9aeb250465f9ae0a20975b79da9564736f6c634300080a0033",
  "immutableReferences": {},
  "source": "//SPDX-License-Identifier: UNLICENSED\r\n\r\npragma solidity ^0.8.10;\r\n\r\nimport \"@openzeppelin/contracts/token/ERC721/extensions/ERC721Enumerable.sol\";\r\nimport \"@openzeppelin/contracts/access/Ownable.sol\";\r\n\r\ncontract DataNFTToken is ERC721Enumerable, Ownable {\r\n\r\n    struct Ticket {\r\n        string name;\r\n        uint256 price;\r\n        uint256 totalSupply;\r\n        uint256 sold;\r\n        string imageURI;\r\n    }\r\n\r\n    Ticket[] private Tickets;\r\n    uint256 tokenId = 0;\r\n\r\n    // this stores which tokenId is linked with which ticket (ticket is found it's array address)\r\n    mapping(uint256 => uint256) private tokenIdToTicketIndex;\r\n\r\n    constructor() ERC721(\"DataNFTToken\", \"DNT\") {}\r\n\r\n    function createTicket(string memory _name, uint256 _price, uint256 _totalSupply, string memory _imageURI) public onlyOwner {\r\n        Ticket memory newTicket = Ticket(_name, _price, _totalSupply, 0, _imageURI);\r\n        Tickets.push(newTicket);\r\n    }\r\n\r\n    function getAllTickets() public view returns(Ticket[] memory) {\r\n        return Tickets;\r\n    }\r\n\r\n    function purchaseTicket(string memory _name) public payable {\r\n        // do entry level checks in frontend\r\n        uint256 index = Tickets.length;\r\n\r\n        for(uint i = 0; i < Tickets.length; i++) {\r\n            if(keccak256(abi.encodePacked(Tickets[i].name)) == keccak256(abi.encodePacked(_name))) {\r\n                index = i;\r\n                break;\r\n            }\r\n        }\r\n\r\n        require(index < Tickets.length, \"Ticket not found!\");\r\n\r\n        Ticket storage ticket = Tickets[index];\r\n\r\n        require(msg.value == ticket.price, \"Pay correctly!\");\r\n        require(ticket.sold <= ticket.totalSupply, \"No Tickets Left!\");\r\n\r\n        tokenIdToTicketIndex[tokenId] = index;\r\n        _safeMint(msg.sender, tokenId);\r\n        tokenId++;\r\n\r\n        ticket.sold++;\r\n\r\n    }\r\n\r\n    function ticketsOfOwner(address user) public view returns(Ticket[] memory) {\r\n\r\n        uint256 count = balanceOf(user);\r\n        Ticket[] memory tickets = new Ticket[](count);\r\n\r\n        for(uint i = 0; i < count; i++) {\r\n            uint256 _tokenId = tokenOfOwnerByIndex(user, i);\r\n            uint256 TicketIndex = tokenIdToTicketIndex[_tokenId];\r\n            tickets[i] = Tickets[TicketIndex];\r\n        }\r\n\r\n        return tickets;\r\n\r\n    }\r\n\r\n    function withdraw() public onlyOwner {\r\n        payable(owner()).transfer(address(this).balance);\r\n    }\r\n\r\n}",
  "sourcePath": "D:\\DAPPs\\Adv-NFT-App\\contracts\\DataNFTToken.sol",
  "compiler": {
    "name": "solc",
    "version": "0.8.10+commit.fc410830.Emscripten.clang"
  },
  "schemaVersion": "3.4.16",
  "updatedAt": "2025-05-02T03:51:26.668Z",
  "networkType": "ethereum",
  "devdoc": {
    "kind": "dev",
    "methods": {
      "approve(address,uint256)": {
        "details": "See {IERC721-approve}."
      },
      "balanceOf(address)": {
        "details": "See {IERC721-balanceOf}."
      },
      "getApproved(uint256)": {
        "details": "See {IERC721-getApproved}."
      },
      "isApprovedForAll(address,address)": {
        "details": "See {IERC721-isApprovedForAll}."
      },
      "name()": {
        "details": "See {IERC721Metadata-name}."
      },
      "owner()": {
        "details": "Returns the address of the current owner."
      },
      "ownerOf(uint256)": {
        "details": "See {IERC721-ownerOf}."
      },
      "renounceOwnership()": {
        "details": "Leaves the contract without owner. It will not be possible to call `onlyOwner` functions. Can only be called by the current owner. NOTE: Renouncing ownership will leave the contract without an owner, thereby disabling any functionality that is only available to the owner."
      },
      "safeTransferFrom(address,address,uint256)": {
        "details": "See {IERC721-safeTransferFrom}."
      },
      "safeTransferFrom(address,address,uint256,bytes)": {
        "details": "See {IERC721-safeTransferFrom}."
      },
      "setApprovalForAll(address,bool)": {
        "details": "See {IERC721-setApprovalForAll}."
      },
      "supportsInterface(bytes4)": {
        "details": "See {IERC165-supportsInterface}."
      },
      "symbol()": {
        "details": "See {IERC721Metadata-symbol}."
      },
      "tokenByIndex(uint256)": {
        "details": "See {IERC721Enumerable-tokenByIndex}."
      },
      "tokenOfOwnerByIndex(address,uint256)": {
        "details": "See {IERC721Enumerable-tokenOfOwnerByIndex}."
      },
      "tokenURI(uint256)": {
        "details": "See {IERC721Metadata-tokenURI}."
      },
      "totalSupply()": {
        "details": "See {IERC721Enumerable-totalSupply}."
      },
      "transferFrom(address,address,uint256)": {
        "details": "See {IERC721-transferFrom}."
      },
      "transferOwnership(address)": {
        "details": "Transfers ownership of the contract to a new account (`newOwner`). Can only be called by the current owner."
      }
    },
    "version": 1
  },
  "userdoc": {
    "kind": "user",
    "methods": {},
    "version": 1
  }
}